:020000040800F2
:100000000000022031110008CD100008CF100008B8
:10001000D1100008D3100008D5100008000000001F
:10002000000000000000000000000000D7100008E1
:10003000D910000800000000DB100008DD100008E7
:100040008111000881110008811100088111000848
:100050008111000881110008811100088111000838
:100060008111000881110008811100088111000828
:100070008111000881110008811100088111000818
:100080008111000881110008811100088111000808
:1000900081110008811100088111000881110008F8
:1000A00081110008811100088111000881110008E8
:1000B000E1100008ED100008F91000088111000897
:1000C00081110008811100088111000881110008C8
:1000D0008111000881110008051100088111000834
:1000E00081110008811100088111000881110008A8
:1000F0008111000881110008811100088111000898
:1001000081110008811100081111000881110008F7
:100110008111000881110008811100088111000877
:100120008111000881110008811100088111000867
:10013000811100080000000000000000811100088B
:100140008111000881110008811100088111000847
:100150008111000881110008811100088111000837
:100160008111000881110008811100088111000827
:1001700081110008811100088111000800000000B1
:1001800000000000811100080000000000000000D5
:10019000811100080000000000000000811100082B
:1001A00000000000000000000000000081110008B5
:1001B00081110008811100088111000881110008D7
:0401C00081110008A1
:1001C40010B5054C237833B9044B13B10448AFF38D
:1001D40000800123237010BD0C00002000000000EB
:1001E400502B000808B5034B1BB103490348AFF378
:1001F400008008BD0000000010000020502B000803
:10020400034613F8012B002AFBD1181A0138704752
:1002140053B94AB9002908BF00281CBF4FF0FF3169
:100224004FF0FF3000F074B9ADF1080C6DE904CE65
:1002340000F006F8DDF804E0DDE9022304B07047BD
:100244002DE9F047089D04468E46002B4DD18A4285
:10025400944669D9B2FA82F252B101FA02F3C2F1B8
:10026400200120FA01F10CFA02FC41EA030E944049
:100274004FEA1C48210CBEFBF8F61FFA8CF708FB6A
:1002840016E341EA034306FB07F199420AD91CEB42
:10029400030306F1FF3080F01F81994240F21C8174
:1002A400023E63445B1AA4B2B3FBF8F008FB1033BC
:1002B40044EA034400FB07F7A7420AD91CEB0404F1
:1002C40000F1FF3380F00A81A74240F207816444C1
:1002D400023840EA0640E41B00261DB1D440002346
:1002E400C5E900433146BDE8F0878B4209D9002DAA
:1002F40000F0EF800026C5E9000130463146BDE834
:10030400F087B3FA83F6002E4AD18B4202D382429D
:1003140000F2F980841A61EB030301209E46002D4C
:10032400E0D0C5E9004EDDE702B9FFDEB2FA82F2A1
:10033400002A40F09280A1EB0C014FEA1C471FFAFF
:100344008CFE0126200CB1FBF7F307FB131140EAE6
:1003540001410EFB03F0884208D91CEB010103F1B3
:10036400FF3802D2884200F2CB804346091AA4B275
:10037400B1FBF7F007FB101144EA01440EFB00FE49
:10038400A64508D91CEB040400F1FF3102D2A645AE
:1003940000F2BB800846A4EB0E0440EA03409CE74D
:1003A400C6F12007B34022FA07FC4CEA030C20FAFA
:1003B40007F401FA06F31C43F9404FEA1C4900FA1A
:1003C40006F3B1FBF9F8200C1FFA8CFE09FB181197
:1003D40040EA014108FB0EF0884202FA06F20BD90A
:1003E4001CEB010108F1FF3A80F08880884240F25A
:1003F4008580A8F102086144091AA4B2B1FBF9F09E
:1004040009FB101144EA014100FB0EFE8E4508D998
:100414001CEB010100F1FF346CD28E456AD902381D
:10042400614440EA0840A0FB0294A1EB0E01A14202
:10043400C846A64656D353D05DB1B3EB080261EB70
:100444000E0101FA07F722FA06F3F1401F43C5E94A
:10045400007100263146BDE8F087C2F12003D84080
:100464000CFA02FC21FA03F3914001434FEA1C47C2
:100474001FFA8CFEB3FBF7F007FB10360B0C43EAB4
:10048400064300FB0EF69E4204FA02F408D91CEB64
:10049400030300F1FF382FD29E422DD90238634462
:1004A4009B1B89B2B3FBF7F607FB163341EA034102
:1004B40006FB0EF38B4208D91CEB010106F1FF3851
:1004C40016D28B4214D9023E6144C91A46EA004648
:1004D40038E72E46284605E70646E3E61846F8E6DA
:1004E4004B45A9D2B9EB020864EB0C0E0138A3E723
:1004F4004646EAE7204694E74046D1E7D0467BE704
:10050400023B614432E7304609E76444023842E77B
:10051400704700BF124B984206D10368114A5B6AC8
:100524001360114A13807047104B984205D1036839
:100534000F4A5B6A13600F4AF4E70F4B984205D1E8
:1005440003680E4A5B6A13600D4AEBE70D4B984251
:10055400E9D103680C4A5B6A13600C4AE2E700BF06
:10056400F001002030000020280000203802002084
:10057400340000202A0000208002002038000020DF
:100584002C000020C80200203C0000202E00002087
:1005940030B595B01422002108A802F0CFFA142235
:1005A400002102A802F0CAFA1F4B00220092196C23
:1005B40041F0805119641B6C1C4903F08053009373
:1005C400009B01920B6823F4404343F480430B6087
:1005D4000B6803F440430193019B0125102302247B
:1005E400CDE90A530821402307A8CDE90D42CDE9FE
:1005F4000F13CDE911440794139401F0BFF808B127
:1006040072B6FEE70F23CDE9023480224FF4805303
:100614000690294602A8CDE9042300F0ABFF08B1F7
:1006240072B6FEE715B030BD0038024000700040DD
:100634002DE9F04FC5B012AC00F0C6FDFFF7A8FFDE
:1006440014220021204602F079FA0025B14B0195CD
:100654001A6BB14842F004021A631A6B02F00402E6
:100664000192019A02951A6B42F080021A631A6B86
:1006740002F080020292029A03951A6B42F0010280
:100684001A631A6B02F001020392039A04951A6B1F
:1006940042F002021A631B6B03F0020304932A461E
:1006A4004FF48151049B00F05FFF9C482A464FF4AD
:1006B400547100F059FF2A46994842F2060100F0AD
:1006C40053FF4FF404134FF40050CDE912032146B5
:1006D40092481495012600F073FE4FF481538E481E
:1006E4002146CDE91236CDE9145500F069FE4FF4E8
:1006F40054738A482146CDE91236CDE9145500F0E9
:100704005FFE42F2060386482146CDE91236CDE962
:100714001455844E00F054FE83484FF416530C27AE
:10072400C0E90063C0E90255C0E905750561C5610A
:1007340001F0AAFF064608B172B6FEE70146102290
:1007440007A802F0FBF91C2231460BA8CDE9056687
:1007540002F0F4F920223146204602F0EFF9734DFD
:10076400734BAE60C5E9003628464FF6FF73C5E902
:100774000336C5E9056601F0D5FB08B172B6FEE79C
:100784004FF4805307A92846079301F041FD08B1AF
:1007940072B6FEE7284601F0F1FB08B172B6FEE737
:1007A4000821284601F016FC08B172B6FEE7CDE92F
:1007B400050005A9284601F03FFE024608B172B6BD
:1007C400FEE76023CDE90B30CDE90D00CDE90F0044
:1007D40011900BA9284601F0B5FC08B172B6FEE7EA
:1007E40004220BA9284601F0ADFC08B172B6FEE75D
:1007F40008220BA9284601F0A5FC08B172B6FEE751
:100804003A460BA9284601F09DFC08B172B6FEE7F2
:1008140000234FF40052454816932146CDE9123384
:10082400CDE914331792199301F044FE054608B13B
:1008340072B6FEE7DFF804913C4800F07BFB2946E2
:10084400202213A802F07AF901264FF080434FF6D4
:10085400FF78032721464846CDE90B55C9E9003501
:10086400C9E90385C9F80850C9F8185012971496B5
:10087400189601F0DCFB08B172B6FEE7CDE90B0077
:100884000BA9484601F0D8FD054608B172B6FEE74B
:10089400DFF8AC900146202213A802F04FF9254B53
:1008A400C9F8105021464846CDE90B55C9E9003531
:1008B400C9E90258C9F8185012971496189601F00D
:1008C400B6FB08B172B6FEE7CDE90B000BA94846AA
:1008D40001F0B2FD054608B172B6FEE7DFF8649098
:1008E4000146202213A802F029F9134BC9F810502D
:1008F40021464846CDE90B55C9E90035C9E90258F6
:10090400C9F8185012971496189601F090FBD8B1B4
:1009140072B6FEE7003802400000024000080240C0
:100924000004024000440040100300204000002066
:10093400000001400004004000080040F0010020D5
:100944003802002080020020CDE90B000BA94846A4
:1009540001F072FD054608B172B6FEE7DFF8FC92BD
:100964000146202213A802F0E9F8AE4BC9F8105052
:1009740021464846CDE90B55C9E90035C9E9025875
:10098400C9F8185012971496189601F050FB08B144
:1009940072B6FEE7CDE90B000BA9484601F04CFD09
:1009A400054608B172B6FEE701461C22204602F055
:1009B400C5F8DFF878929C49C9F808504FF42073C1
:1009C400C9E9001348464FF47A73C9E90335C9F8F5
:1009D400185001F0A7FA08B172B6FEE7934801F087
:1009E400CDFA024608B172B6FEE74FF06008CDE9D1
:1009F40012801490169021468C4801F0A3FB054602
:100A040008B172B6FEE7894800F094FA8848894B29
:100A14008560C0E900354FF6FF73C0E90335856191
:100A240001F080FA054608B172B6FEE701461022CD
:100A34000BA802F083F8804E1C222946204602F0BF
:100A44007DF87E4BB5604FF4207B4FF47A7A3046C4
:100A5400C6E9003BC6E903A5B56101F063FA08B134
:100A640072B6FEE74FF480530BA930460B9301F0A6
:100A7400CFFB08B172B6FEE7304601F07FFA0246BA
:100A840008B172B6FEE7CDE91280149016902146A3
:100A9400304601F057FB054608B172B6FEE7304612
:100AA40000F048FA664F1C222946204602F046F818
:100AB400644B3D613846C7E9003BC7E9025ABD6152
:100AC40001F030FA08B172B6FEE7384601F056FA82
:100AD400024608B172B6FEE7CDE912801490169072
:100AE4002146384601F02EFB08B172B6FEE75448A1
:100AF400554D00F01FFA1C220021204602F01EF87A
:100B0400524A4FF42073C5E900234FF47A7A002344
:100B14002846C5E9023A2B61AB6101F003FA08B13A
:100B240072B6FEE7284601F029FA024608B172B609
:100B3400FEE76023CDE91230149016902146284632
:100B440001F000FB804608B172B6FEE7284600F0CB
:100B5400F1F93C213E48DFF810B101F067F83C217F
:100B64003C4801F063F83C213B4801F05FF83C212C
:100B74003A4801F05BF84146584601F05BFC042119
:100B8400584601F057FC0821584601F053FC0C214B
:100B9400584601F04FFCDBF8003024484FF0500B6E
:100BA400C3F834B04146C3F838B0C3F83CB0C3F816
:100BB40040B001F03FFC41461F4801F03BFC414678
:100BC400284601F037FC41461D4801F033FCD9F8B2
:100BD40000304B225A633368C3F834B02B68204D7D
:100BE40064225A633B6878225A63504600F018FB2B
:100BF4001C4A10685168234603C3C02241460DEBCA
:100C04000B0001F09BFF2046FFF7FAFA4FF6FF7343
:100C140082B22146284601F065FDC82000F000FBA1
:100C2400F1E700BF000C00400044014088000020B0
:100C3400D0000020004801401801002000180040A6
:100C4400A80100200020004060010020001C00409A
:100C5400F00100203802002080020020C802002099
:100C640010030020682B00084000002082B00D4BC8
:100C7400002100915A6C42F480425A645A6C02F486
:100C840080420092009A01911A6C42F080521A64D8
:100C94001B6C03F080530193019B072002B000F00A
:100CA400D3BA00BF003802400368314A934286B089
:100CB4000DD1002300932F4B5A6C42F001025A6469
:100CC4005B6C03F001030093009B06B070472A4A53
:100CD40093420CD100230193264B5A6C42F4003208
:100CE4005A645B6C03F400330193019BEDE7234AE0
:100CF40093420CD1002302931E4B5A6C42F480227F
:100D04005A645B6C03F480230293029BDDE71C4A64
:100D140093420CD100230393164B1A6C42F0400209
:100D24001A641B6C03F040030393039BCDE7154A3D
:100D340093420CD1002304930E4B1A6C42F08002B0
:100D44001A641B6C03F080030493049BBDE70E4AF2
:100D54009342BAD100230593064B1A6C42F4807275
:100D64001A641B6C03F480730593059BADE700BF05
:100D740000000140003802400044014000480140A6
:100D840000180040001C00400020004070B50446DC
:100D94008EB01422002109A801F0D0FE2368B3F11B
:100DA400804F40D103F50E33002400941A6C5B4845
:100DB40042F001021A641A6C02F001020092009AD5
:100DC40001941A6B42F001021A631A6B02F00102D9
:100DD4000192019A02941A6B42F002021A631B6B8D
:100DE40003F002030293029B02264FF40043012501
:100DF40009A9CDE909360D9500F0E2FA4FF4007324
:100E040047480D9509A9CDE90936CDE90B4400F011
:100E1400D7FA1C202246214600F028FA1C2000F0B4
:100E240057FA0EB070BD3F4A934225D13E4B002481
:100E340003941A6C42F002021A641A6C02F0020261
:100E44000392039A04941A6B42F002021A631B6B16
:100E540003F002030493049B30200223CDE9090329
:100E640009A92F480D9300F0ABFA1D202246214614
:100E740000F0FCF91D20D2E72C4A934225D12A4BDD
:100E84002748002405941A6C42F004021A641A6C70
:100E940002F004020592059A06941A6B42F00202CB
:100EA4001A631B6B03F002030693069BC021022303
:100EB400CDE9091309A90D9300F082FA1E202246F8
:100EC400214600F0D3F91E20A9E7194A9342A8D17C
:100ED400154B1248002407941A6C42F008021A6455
:100EE4001A6C02F008020792079A08941A6B42F0EF
:100EF40001021A631B6B03F0010308930322089B8E
:100F040009A90223CDE909230D9300F059FA3220EF
:100F14002246214600F0AAF9322080E70000024070
:100F24000004024000040040003802400008004071
:100F3400000C004010B514228AB0044600210DEBC9
:100F4400020001F0FBFD2368384A934215D10023C7
:100F54000093374B1A6B42F001021A631B6B03F0C8
:100F640001030093009B4FF470600223CDE9050355
:100F740001233048099305A917E02F4A934218D159
:100F8400002301932A4B1A6B42F002021A631B6B73
:100F940003F002030193019B4FF480710223CDE916
:100FA400051303232548099305A900F009FA0AB09B
:100FB40010BD234A934212D1002302931C4B1A6B97
:100FC40042F002021A631B6B03F002030293029BBA
:100FD4004FF480420223CDE905230923E2E7194AAD
:100FE400934211D100230393114B1A6B42F0010277
:100FF4001A631B6B03F001030393039B40230593C4
:10100400022306930923B4E70F4A9342CFD1002366
:101014000493074B1A6B42F001021A631B6B03F033
:1010240001030493049B8023E9E700BF000001400F
:101034000038024000000240004401400004024025
:1010440000180040001C00400020004010B5044679
:1010540088B01422002103A801F070FD2268184B07
:101064009A422AD103F5FA33002401941A6C1548E4
:1010740042F400321A641A6C02F400320192019AAA
:1010840002941A6B42F001021A631B6B03F0010312
:1010940002930C22029B0223CDE90323032107239D
:1010A400CDE9061303A900F08BF926202246214638
:1010B40000F0DCF8262000F00BF908B010BD00BFEA
:1010C4000044004000000240FEE7FEE7FEE7FEE7C2
:1010D400FEE770477047704700F090B8014800F091
:1010E40018BE00BFF0010020014800F012BE00BF8E
:1010F40038020020014800F00CBE00BF800200202E
:10110400014801F0A7BB00BF10030020014800F014
:1011140000BE00BFC8020020034AD2F8883043F45E
:101124007003C2F88830704700ED00E0DFF834D077
:101134000D480E490E4A002302E0D458C45004332B
:10114400C4188C42F9D30B4A0B4C002301E0136002
:101154000432A242FBD3FFF7DFFF01F0CBFCFFF721
:1011640067FA704700000220000000200C000020F5
:10117400582C00080C00002058030020FEE7000053
:1011840038B50E4A0E4B054618784FF47A73B3FB04
:10119400F0F31068B0FBF3F000F0A8F8044658B977
:1011A4000F2D09D8024629464FF0FF3000F05EF8B3
:1011B400044B20461D6038BD0120FCE700000020E0
:1011C400040000200800002008B50B4B1A6842F404
:1011D40000721A601A6842F480621A601A6842F453
:1011E40080721A60032000F02FF80020FFF7C8FF78
:1011F400FFF73CFD002008BD003C0240034A044BBD
:1012040011681B780B441360704700BF540300201F
:1012140004000020014B1868704700BF54030020ED
:1012240038B50446FFF7F6FF631C1CBF054B1B785B
:10123400054618BFE418FFF7EDFF431BA342FAD39A
:1012440038BD00BF040000200749CA6822F4E062E8
:101254000302120403F4E063120C134343F0BF636C
:1012640043F40033CB60704700ED00E0164B30B51B
:10127400DC68C4F30224C4F10705231D042D28BF30
:101284000425062B4FF0FF338CBF033C002403FAE4
:1012940005F521EA0501A34022EA0302A140002842
:1012A40041EA0203ACBF00F16040084A4FEA03136D
:1012B400B8BF00F00F00DBB2AABF00F561401354C1
:1012C40080F8003330BD00BF00ED00E014ED00E015
:1012D400002808DB4209012300F01F0003FA00F094
:1012E400014B43F82200704700E100E00138B0F1FF
:1012F400807F0BD24FF0E023054A5861F02182F839
:1013040023100020072298611A617047012070475A
:1013140000ED00E070B50446866DFFF77BFF94F89E
:101324003530022B054606D080236365002384F8FC
:101334003430012070BD23681A6822F016021A6046
:101344005A6922F080025A61226C0AB9A26C1AB15D
:101354001A6822F008021A601A6822F001021A6060
:1013640023681B6813F001030AD1E16D3F228A4010
:10137400B260012284F8352084F834301846D9E765
:10138400FFF748FF401B0528EAD9202363650320A3
:10139400002384F8350084F83430CBE790F83530F6
:1013A400022B03D080234365012070470268052384
:1013B40080F83530136823F0010313600020704770
:1013C4002DE9F74FDFF89C91644A00230D6801244E
:1013D4009C4004EA050CAC4340F0AD804D6805F038
:1013E40003044FEA43080326671E06FA08F6012F92
:1013F4006FEA060634D8876807EA060ECF6807FA4C
:1014040008F747EA0E078760476827EA0C0EC5F31A
:1014140000179F4047EA0E074760C76807EA060EB1
:101424008F6807FA08F747EA0E07022CC76019D13C
:101434004FEAD30A00EB8A0A03F0070BDAF82070AC
:101444004FEA8B0B4FF00F0E0EFA0BFE27EA0E0E2F
:101454000F6907FA0BF747EA0E07CAF8207001E094
:10146400032CDAD1076804FA08F43E40264315F445
:10147400403F06605FD04FF0000ACDF804A0D9F8D1
:101484004460374C46F48046C9F84460D9F8446057
:1014940006F480460196019E23F0030606F1804679
:1014A40006F59C3603F0030ED6F808804FEA8E0E3C
:1014B4000F2707FA0EF7A04228EA070742D004F5DF
:1014C4008064A04240D004F58064A0423ED004F57C
:1014D4008064A0423CD004F58064A0423AD004F574
:1014E4008064A04238D004F58064A0420CBF062476
:1014F400072404FA0EF43C43B46094686FEA0C06C3
:10150400EF0254BF34404CEA04049460D468AF0240
:1015140054BF34404CEA0404D4605468AF0354BF4D
:1015240034404CEA040454601468ED0354BF34405E
:101534004CEA040414600133102B7FF447AF03B06A
:10154400BDE8F08F5446D4E70124D2E70224D0E763
:101554000324CEE70424CCE70524CAE7003C014079
:1015640000000240003802400AB18161704709045A
:10157400FBE700002DE9F0410D46044610B90120B7
:10158400BDE8F081444B1A6802F00F028A4228D366
:10159400226897072DD4D00741D43F4B1A6802F034
:1015A4000F02AA4266D8226851076CD4130707D5E4
:1015B4003A4A2169936823F4604343EAC103936080
:1015C40000F094F8354B364A9B68C3F30313D35C9D
:1015D400D840344B1860344B1868FFF7D1FD002015
:1015E400CEE7CAB21A701B6803F00F038B42C6D150
:1015F400CEE72A4B12F0040F1EBF996841F4E05164
:101604009960160742BF996841F460419960234983
:10161400A0688B6823F0F00303438B60BBE7626828
:101624001E4B012A1CD11B6813F4003FA7D01B4E8C
:10163400B36823F003031343B360FFF7EBFD41F2F8
:1016440088380746B368626803F00C03B3EB820F73
:10165400A3D0FFF7DFFDC01B4045F3D903208FE77C
:10166400911E01291B6802D813F0007FDEE713F0F6
:10167400020FDBE7EAB21A701B6803F00F03AB42F8
:101684007FF47DAF8FE70549E0688B6823F4E0536E
:1016940003438B608AE700BF003C024000380240ED
:1016A400302C00080000002008000020044B054AEC
:1016B4009B68C3F38223D35C034A1068D840704705
:1016C40000380240402C000800000020044B054A6A
:1016D4009B68C3F34233D35C034A1068D840704715
:1016E40000380240402C000800000020204908B5C2
:1016F4008B6803F00C03082B07D00C2B20D01D485B
:101704001D4A042B08BF104608BD4A684B68496847
:1017140013F4800314BF18481648C1F3881118BF86
:10172400002302F03F02A1FB0001FEF771FD104B04
:101734005B68C3F3014301335B00B0FBF3F0E3E701
:101744004A684B68496813F4800314BF0A4809487F
:10175400C1F3881118BF002302F03F02A1FB00016E
:10176400FEF756FD024B5B68C3F30273E5E700BF67
:10177400003802400024F40000127A002DE9F341FD
:101784000446002830D00368DF0710D423689E077E
:1017940063D423681A0700F1AD8023685B0700F166
:1017A400CD80A069002840F03581002034E0964BBC
:1017B4009A6802F00C02042A0FD09A6802F00C0214
:1017C400082A02D15A68550207D49A6802F00C021A
:1017D4000C2A0BD15B68580208D58B4B1B68990304
:1017E400D4D56368002BD1D1012015E06368864D00
:1017F400B3F5803F13D12B6843F480332B60FFF79C
:1018040009FD814E054633689A03BFD4FFF702FDF4
:10181400401B6428F7D9032002B0BDE8F081B3F57A
:10182400A02F04D12B6843F480232B60E3E72A68BC
:1018340022F480322A602A6822F480222A60002B53
:10184400DDD1FFF7E7FC06462B689B039ED5FFF727
:10185400E1FC801B6428F7D9DDE76B4B9A6812F032
:101864000C0F0FD09A6802F00C02082A02D15A68B1
:10187400570207D59A6802F00C020C2A11D15B6852
:101884005E020ED4604A13689D0702D5E368012BFB
:10189400AAD11368216923F0F80343EAC103136052
:1018A40077E7E268594BB2B101221A60FFF7B2FC44
:1018B400554D06462B68980707D52B68226923F0F7
:1018C400F80343EAC2032B6063E7FFF7A3FC801B22
:1018D4000228EFD99FE71A60FFF79CFC4A4E0546A1
:1018E400336899077FF555AFFFF794FC401B022836
:1018F400F6D990E76269454B82B10122C3F8802E84
:10190400FFF788FC404E0546736F9F073FF545AFD0
:10191400FFF780FC401B0228F6D97CE7C3F8802E31
:10192400FFF778FC384E0546736F98077FF535AF9F
:10193400FFF770FC401B0228F6D96CE7324B1A6C97
:1019440012F0805228D101921A6C42F080521A642B
:101954001B6C03F080530193019B01272C4D2B68D2
:10196400D9051BD5A368284D012B27D12B6F43F034
:1019740001032B67FFF74EFC234E054641F28838DE
:10198400336F9B0739D5002F3FF40BAF1E4A136CFE
:1019940023F08053136404E70027DFE72B6843F444
:1019A40080732B60FFF736FC06462B68DA05D9D422
:1019B400FFF730FC801B0228F7D92CE7052B04D154
:1019C4002B6F43F004032B67D0E72A6F22F0010248
:1019D4002A672A6F22F004022A67002BCAD1FFF774
:1019E40019FC41F2883806462B6F9807CBD5FFF7D0
:1019F40011FC801B4045F7D90DE7FFF70BFC401B9A
:101A04004045BDD907E700BF003802400000474207
:101A1400007000403B4DAB6803F00C03082B40D032
:101A2400394B002202281A662ED1FFF7F3FB064633
:101A34002B68990122D4D4E907321343626A43EA3A
:101A44008213E26A43EA0263226B43EA0273A26AE4
:101A54005208013A43EA02436B602B4B294D0122A1
:101A64001A66FFF7D7FB04462B689A013FF59DAE33
:101A7400FFF7D0FB001B0228F6D9CCE6FFF7CAFB20
:101A8400801B0228D4D9C6E6FFF7C4FB04462B68A2
:101A94009B017FF58AAEFFF7BDFB001B0228F6D938
:101AA400B9E601283FF4B8AE6B68E26903F480013B
:101AB40091427FF499AE216A03F03F028A427FF497
:101AC40093AE616A47F6C0721A40B2EB811F7FF48D
:101AD4008BAEA26A520803F44031013AB1EB024FD3
:101AE4007FF482AEE16A03F07062B2EB016F7FF4BF
:101AF4007BAE226B03F0E043B3EB027F3FF455AEC1
:101B040072E600BF0038024000004742036A23F037
:101B140001030362036A70B5446882690D6822F0A8
:101B240073022A438D6823F002032B430E4DA8420F
:101B340002D00E4EB04210D1CE6823F008033343D6
:101B4400A84223F0040302D0084DA84205D1D1E9EC
:101B5400055624F4407435432C43446082614A683A
:101B64004263036270BD00BF0000014000040140F5
:101B7400036A23F480730362036A70B54468C2691C
:101B84000D6822F073022A438D6823F4007343EA3C
:101B94000523114DA84203D005F58065A84214D150
:101BA400CD6823F4006343EA05230B4DA84223F4D4
:101BB400806303D005F58065A84206D1D1E90556B6
:101BC40024F44054354344EA05144460C2614A682D
:101BD400C263036270BD00BF00000140036A23F4C6
:101BE40080530362036A30B54468C2690D6822F405
:101BF400E64242EA05228D6823F4005343EA0533A2
:101C0400084DA84203D005F58065A84204D14D696A
:101C140024F4804444EA85144460C2614A6802643E
:101C2400036230BD000001407047704730B590F842
:101C34003E2090F83F3090F8425090F84340D2B2A2
:101C4400DBB2EDB2E4B2E9B9012A5AD1012D5AD17D
:101C5400022380F83E3080F8423003681A6A22F08A
:101C640001021A621A6A42F001021A62DA6842F048
:101C74000202DA600268136843F001031360002370
:101C8400184630BD042915D1012B3AD1012CF7D1C6
:101C9400022380F83F3080F8433003681A6A22F048
:101CA40010021A621A6A42F010021A62DA6842F0EA
:101CB4000402DEE7012A24D1012B24D1012DDFD136
:101CC400012CDDD1022380F83E3080F83F3080F8CB
:101CD400423080F8433003681A6A22F001021A6223
:101CE4001A6A42F001021A621A6A22F010021A6297
:101CF4001A6A42F010021A62DA6842F00202DA60EA
:101D0400D4E70123BCE71346BAE77047704770472E
:101D1400704703681A69910710B504460ED5DA684E
:101D240092070BD56FF002021A61012202779B69B8
:101D34009B0777D0FEF7EEFB0023237723681A690D
:101D4400500710D5DA6851070DD56FF004021A61F7
:101D5400022222779B6913F4407F204668D0FEF765
:101D6400D9FB0023237723681A6912070FD5DA6891
:101D740010070CD56FF008021A6104222277DB6980
:101D8400990720465AD0FEF7C5FB00232377236822
:101D94001A69D20610D5DA68D0060DD56FF0100294
:101DA4001A6108222277DB6913F4407F20464BD066
:101DB400FEF7B0FB0023237723681A69D10708D5FF
:101DC400DA68D20705D56FF001021A612046FFF7E1
:101DD4009CFF23681A69100608D5DA68110605D530
:101DE4006FF080021A61204600F08BFB23681A69A9
:101DF400520608D5DA68500605D56FF040021A611C
:101E04002046FFF785FF23681A69910622D5DA6810
:101E140092061FD56FF0200220461A61BDE81040DB
:101E240000F06EBBFFF772FF2046FFF770FF83E7F9
:101E3400FFF76CFF2046FFF76AFF92E7FFF766FFA4
:101E44002046FFF764FFA0E7FFF760FF2046FFF797
:101E54005EFFAFE710BD0000304A0368904212D025
:101E6400B0F1804F0FD0A2F57C4290420BD002F526
:101E74008062904207D002F58062904203D002F55E
:101E84007842904219D14A6823F070031343234ADD
:101E9400904229D0B0F1804F26D0A2F57C429042E6
:101EA40022D002F5806290421ED002F580629042F8
:101EB4001AD002F57842904216D0194A904213D0B3
:101EC40002F5806290420FD002F5806290420BD0FE
:101ED400A2F59832904207D002F58062904203D076
:101EE40002F58062904203D1CA6823F4407313431D
:101EF4004A6923F08003134303608B68C3620B6851
:101F04008362064B984203D003F58063984201D163
:101F14000B69036301234361704700BF0000014064
:101F24000040014010B5044630B390F83D3003F052
:101F3400FF021BB980F83C20FEF7B6FE022320689E
:101F440084F83D30211DFFF787FF012384F84630D4
:101F5400002084F83E3084F83F3084F8403084F820
:101F6400413084F8423084F8433084F8443084F8B3
:101F7400453084F83D3010BD0120FCE710B504461F
:101F840030B390F83D3003F0FF021BB980F83C20D9
:101F9400FFF74AFE0223206884F83D30211DFFF735
:101FA4005BFF012384F84630002084F83E3084F837
:101FB4003F3084F8403084F8413084F8423084F86B
:101FC400433084F8443084F8453084F83D3010BD03
:101FD4000120FCE738B50D46044630B390F83D3097
:101FE40003F0FF021BB980F83C20FFF71EFE02231A
:101FF400206884F83D30211DFFF72EFF23681A68FE
:1020040022F008021A601A682A431A60012384F82D
:102014004630002084F83E3084F83F3084F8423063
:1020240084F8433084F83D3038BD0120FCE7F8B52E
:102034000D46044600284DD090F83D3003F0FF02D1
:102044001BB980F83C20FEF7A1FE2146022384F848
:102054003D3051F8040B836823F4804323F00703D5
:102064008360FFF7F9FE20682A6886688369A96897
:10207400076A1643AA6923F4407341EA022123F054
:1020840003030B4323F47C422B69E9691B0143EAF4
:102094000123E9680B43296A22F0FC0243EA013375
:1020A4001343696927F0AA026F68866047EA01173B
:1020B400836117430123076284F84630002084F8C3
:1020C4003E3084F83F3084F8423084F8433084F85A
:1020D4003D30F8BD0120FCE7036A23F010030362DE
:1020E400036A70B5446882690D6822F4E64242EAE4
:1020F40005228D6823F0200343EA0513104DA842FE
:1021040003D005F58065A84214D1CD6823F080037F
:1021140043EA05130A4DA84223F0400303D005F512
:102124008065A84206D1D1E9055624F440643543BC
:1021340044EA8504446082614A688263036270BD34
:102144000000014070B590F83C30012B054653D097
:102154000120082A85F83C003DD006D8C2B1042AE3
:1021640028D0002385F83C3070BD0C2AF9D12868AA
:10217400FFF734FD2B680969DA6942F40062DA6119
:10218400DA6922F48062DA61DA6942EA012231E032
:102194002868FFF7BBFC2B6809699A6942F00802BA
:1021A4009A619A6922F004029A619A690A439A61CF
:1021B4000020D6E72868FFF78FFF2B6809699A6922
:1021C40042F400629A619A6922F480629A619A697F
:1021D40042EA0122EBE72868FFF7CAFC2B68096989
:1021E400DA6942F00802DA61DA6922F00402DA619B
:1021F400DA690A43DA61DBE70220B5E710B58468DF
:10220400114324F47F4441EA03232343836010BD34
:1022140070B590F83C30012B04464FF0020300F0F7
:102224009180012280F83D3080F83C20006883686A
:1022340023F47F4323F0770383600B68602B52D031
:1022440033D8402B67D016D8202B0DD00AD833F0C2
:10225400100109D0012384F83D30002384F83C3078
:10226400104670BD302BF5D1826822F07002134302
:1022740043F0070317E0502BECD14A68CE68016A9B
:10228400056A25F001050562836921F00A0123F03E
:10229400F00343EA06130A4383610262836823F06E
:1022A400700343F05703836011E0B3F5805F0ED0F1
:1022B400B3F5005F0DD0702BCCD1CB68D1E90121EF
:1022C400FFF79CFF2268936843F077039360002232
:1022D400C0E7CB68D1E90121FFF790FF226893683A
:1022E40043F48043F2E74D68CE68016A21F010019F
:1022F40001628269036A22F4704223F0A00343EA74
:10230400051342EA063282610362836823F0700394
:1023140043F06703C7E74A68CE68016A056A25F097
:1023240001050562836921F00A0123F0F00343EA01
:1023340006130A4383610262836823F0700343F047
:102344004703B0E71A468BE7036A01F01F0110B593
:1023540001248C4023EA04030362036A8A401A437B
:10236400026210BD10B5044629B990F83E30012B25
:1023740018D001202DE004290DD190F83F30013B05
:1023840018BF0123002BF4D104294FF0020321D1FB
:1023940084F83F3009E008290CBF90F8403090F8E9
:1023A4004130ECE7022380F83E3020680122FFF739
:1023B400CBFF23681C498B4213D01C4A934210D094
:1023C400B3F1804F14D19A6802F00702062A26D18D
:1023D400002010BD08290CBF84F8403084F8413037
:1023E400E3E75A6C8B4242F400425A64EBD0E7E7CD
:1023F4000F4A9342E7D002F580629342E3D002F59C
:1024040080629342DFD002F578429342DBD002F53A
:1024140070529342D7D0A2F594329342D3D01A6823
:1024240042F001021A60D3E70000014000040140B9
:1024340000040040FFF796BF30B590F83C30012B04
:102444004FF0020332D080F83D3003680D685C68B9
:102454009A6824F070042C435C60154CA3421AD093
:10246400B3F1804F17D0A4F57C44A34213D004F5F4
:102474008064A3420FD004F58064A3420BD004F51A
:102484007844A34207D004F57054A34203D0A4F5C2
:102494009434A34204D1496822F080020A439A602A
:1024A400012380F83D30002380F83C30184630BDCD
:1024B4000000014090F83C30012B1FD0CB688A68A3
:1024C40023F4407313434A6823F4806313430A6874
:1024D40023F4006313430A6923F4805313434A69C2
:1024E40023F400531343CA6923F48043134302685B
:1024F4005364002380F83C3018467047022070472C
:1025040070477047026802F10C0353E8003F23F45C
:1025140090730C3242E8003102680029F2D102F1D2
:10252400140353E8003F23F0010302F1140C4CE8B8
:1025340000310029F3D1036B012B0BD102F10C0301
:1025440053E8003F23F0100302F10C0C4CE8003177
:102554000029F3D1202380F83E3000230363704721
:102564000268C168136923F440530B4370B51361C7
:10257400054683680069D168034368690343E869D1
:1025840021F4164121F00C0103430B43D36053693A
:10259400A96923F440730B4353611F4B9A4203D040
:1025A40003F580639A4223D1FFF790F8EB69192170
:1025B400B3F5004FD5E90046A0FB01011BD1B219C8
:1025C4004FF000035B41FDF723FE6421B0FBF1F5FE
:1025D40001FB1503DB003233B3FBF1F303F0070215
:1025E4005B0002EB051203F4F8731344A36070BD9F
:1025F400FFF75CF8DAE7B200B30FFDF709FE6422D7
:10260400B0FBF2F102FB11031B013233B3FBF2F313
:1026140003EB0113EAE700BF00100140F8B50446DC
:102624000E4617461D462268136836EA030301D195
:10263400002028E06B1CF7D025B1FEF7EBFDC01B92
:102644008542F0D2226802F10C0353E8003F23F4E0
:10265400D0730C3242E8003021680028F2D101F135
:10266400140353E8003F23F0010301F1140040E890
:102674000032002AF3D1202384F83D3084F83C2032
:1026840084F83E300320F8BD10B5044640B390F8FA
:102694003D3003F0FF021BB980F83C20FEF7D6FC66
:1026A4002268242384F83D30D36823F40053D36094
:1026B4002046FFF755FF23681A6922F490421A61F5
:1026C4005A6922F02A025A61DA6842F40052DA6046
:1026D40000202023206484F83D3084F83E3010BD6F
:1026E4000120FCE7F7B5174690F83D200093202A17
:1026F40004460E4649D1002945D0002F43D090F816
:102704003C20012A41D0012280F83C2000252122CE
:10271400056480F83D20FEF77DFDA168009BA78439
:10272400B1F5805F0246E78403D1216909B93546D2
:102734000E46002184F83C10E18C89B241B9402155
:102744002046FFF76BFF60B9202384F83D3009E091
:1027540080212046CDE90023FFF760FFDDE9002357
:1027640010B1032003B0F0BD20684EB935F8021B48
:10277400C1F308014160E18C013989B2E184DBE7EE
:1027840016F8011BF6E70120ECE70220EAE77047A0
:102794007047704708B5806B0023C385C384FFF777
:1027A400F8FF08BD704707B58168836A0268B1F510
:1027B400805F3ED1016900293ED15268C2F308020C
:1027C40023F8022B8362C38D013B9BB2C385002B8C
:1027D4002CD10268D16821F02001D160D16821F4A4
:1027E4008071D160516921F001015161202280F88A
:1027F4003E20026B012A026828D1036302F10C0314
:1028040053E8003F23F0100302F10C0C4CE80031B4
:102814000029F3D11368DB0605D5019113680193F0
:1028240053680193019B818DFFF7BCFF03B05DF8F2
:1028340004FB39B9016929B95268D2B21A70836AA2
:102844000133BFE7526802F07F02F7E7FFF7A0FF0A
:10285400ECE70000036837B51A68D9685D6912F0BF
:102864000F0F04460CD1950670D58D066ED590F8E1
:102874003E30222B64D103B0BDE83040FFF793BF54
:1028840005F0010001F4907505435FD0D50705D527
:10289400CB0542BF236C43F001032364550704D5E1
:1028A40018B1236C43F002032364930704D518B1D1
:1028B400236C43F004032364150707D501F02003B8
:1028C40003431EBF236C43F008032364236C002BD3
:1028D40036D0900608D58A0606D594F83E30222BC9
:1028E40002D12046FFF75FFF23685B69256C03F084
:1028F400400305F008051D43204623D0FFF702FEE0
:10290400226853695B0618D502F1140353E8003FAB
:1029140023F0400302F1140040E800310029F3D110
:10292400A06B50B1724B0365FEF738FD40B1A06B4C
:10293400036D03B0BDE8304018472046FFF729FF78
:1029440003B030BDFFF725FF2564F9E7206B0128AC
:1029540040F09180D50640F18E80C80640F18B800E
:10296400002201921A6801925A680192019A5A69E6
:1029740055064CD5A16B0A68526892B2002ADFD082
:10298400A08D9042DCD9E285CA69B2F5807F36D049
:1029940003F10C0252E8002F22F4807203F10C00C0
:1029A40040E800210029F3D103F1140252E8002F7A
:1029B40022F0010203F1140040E800210029F3D1C0
:1029C40003F1140252E8002F22F0400203F1140034
:1029D40040E800210029F3D1202284F83E2021631D
:1029E40003F10C0252E8002F22F0100203F10C0054
:1029F40040E800210029F3D1A06BFEF78BFCE38DA6
:102A0400A18DC91A89B22046FFF7CCFE98E7E18D63
:102A14008AB2E18D89B2002992D0A18D891A89B236
:102A240000298DD003F10C0252E8002F22F4907299
:102A340003F10C0545E800200028F3D103F114024A
:102A440052E8002F22F0010203F1140545E80020AA
:102A54000028F3D1202284F83E20206303F10C02E5
:102A640052E8002F22F0100203F10C0545E8002083
:102A74000028F3D1C7E7100628D50D0626D594F80B
:102A84003D20212A7FF45CAFA168226AB1F5805F02
:102A940017D12169A9B932F8021BC1F308015960A1
:102AA4002262E28C013A92B2E284002A7FF448AFB7
:102AB400DA6822F08002DA60DA6842F04002DA6012
:102AC4003EE7511C216212785A60EAE750067FF50E
:102AD40037AF4A067FF534AFDA6822F04002DA6095
:102AE400202384F83D302046FFF751FE28E700BF3D
:102AF4009927000870B50D4D0D4C641BA4100026D9
:102B0400A64209D10B4D0C4C00F020F8641BA41014
:102B14000026A64205D170BD55F8043B98470136FE
:102B2400EEE755F8043B98470136F2E7502C0008CD
:102B3400502C0008502C0008542C00080244034672
:102B4400934200D1704703F8011BF9E7F8B500BFC1
:102B5400F8BC08BC9E467047F8B500BFF8BC08BC7A
:042B64009E467047D2
:102B680068656C6C6F0D0A00000000000000000032
:102B7800000000000000000000000000000000004D
:102B8800000000000000000000000000000000003D
:102B9800000000000000000000000000000000002D
:102BA800000000000000000000000000000000001D
:102BB800000000000000000000000000000000000D
:102BC80000000000000000000000000000000000FD
:102BD80000000000000000000000000000000000ED
:102BE80000000000000000000000000000000000DD
:102BF80000000000000000000000000000000000CD
:102C080000000000000000000000000000000000BC
:102C180000000000000000000000000000000000AC
:102C2800000000000000000000000000000000009C
:102C3800010203040607080900000000010203045A
:082C4800FCD5FF7F0100000034
:042C5000E90100088E
:042C5400C5010008AE
:0C2C58000024F400010000001000000047
:0400000508001131AD
:00000001FF
